:020000040800F2
:1000000000800020655D000871120008731200086E
:10001000751200087712000879120008000000002D
:100020000000000000000000000000007B1200083B
:100030007D120008000000007F12000881120008F5
:10004000B55D0008B55D0008B55D0008B55D000848
:10005000B55D0008B55D0008B55D0008B55D000838
:10006000B55D0008B55D0008B55D0008B55D000828
:10007000B55D0008B55D0008B55D0008B55D000818
:10008000B55D0008B55D0008B55D0008B55D000808
:1000900089120008B55D0008B55D0008B55D00086F
:1000A000B55D0008B55D0008B55D0008B55D0008E8
:1000B000B55D0008B55D0008B55D0008B55D0008D8
:1000C000B55D0008B55D0008B55D0008B55D0008C8
:1000D000B55D0008B55D0008B55D0008B55D0008B8
:1000E000B55D0008B55D0008B55D0008B55D0008A8
:1000F000B55D0008B55D0008B55D0008B55D000898
:10010000000000000000000000000000B55D0008D5
:10011000B55D0008B55D0008B55D0008B55D000877
:10012000B55D0008B55D0008B55D0008B55D000867
:10013000B55D0008B55D000800000000000000008B
:10014000B55D0008B55D0008B55D00080000000061
:10015000000000000000000000000000000000009F
:100160000000000000000000B55D0008B55D00085B
:10017000B55D000800000000000000000000000065
:0801800000000000B55D00085D
:100188000348044B834202D0034B03B1184770471E
:100198002C0100202C010020000000000548064B1F
:1001A8001B1AD90F01EBA301491002D0034B03B16D
:1001B800184770472C0100202C0100200000000087
:1001C80010B5064C237843B9FFF7DAFF044B13B197
:1001D8000448AFF300800123237010BD30010020D4
:1001E80000000000305E000808B5054B1BB105494A
:1001F8000548AFF30080BDE80840FFF7CFBF00BF58
:100208000000000034010020305E000810B5E0B0A6
:10021800304A0492304A12788DF85421002321E0A4
:1002280003EBC3022D4901EB82010C6904AA02EB1E
:10023800830044604C6903F1140002EB80004460C1
:10024800CC6903F1280002EB80004460086A03F1DE
:100258003C0102EB810148602149C95C1A4482F8DB
:1002680045110133132BDBDD00230AE003F15601AE
:1002780004AA02EB81021B4951F82300C2F80200CC
:100288000133032BF2DD04F0B3F801A80023036067
:10029800154B436001238360694604F071F9B0B1DE
:1002A80004F0C0F860B010BD04F1007101F5FC4124
:1002B80060AB03EB8403A3F5B8731A6800238900C5
:1002C800022004F0E9F801345B2CEDD9E8E7044694
:1002D800FAE700BFE3BEADDE3405002020020020AF
:1002E800040000202405002000F80108214B1A68AA
:1002F800214B9A4200D070471E4B93F844211F4B64
:100308001A70002322E01B4A02EB8301486803EBC2
:10031800C30C1B4901EB8C01086103F1140002EBCB
:10032800800040684861886103F1280002EB800082
:100338004068C86103F13C0002EB80004068086235
:100348001A4492F845110F4AD1540133132BDADDC0
:1003580000220CE002F156039B0003F1006303F551
:10036800FC33D3F80200084B43F822000132032A79
:10037800F0DDC0E700F80108E3BEADDE340500207B
:1003880020020020040000202405002082B0002361
:10039800019303E000BF019B01330193019B1D2BD7
:1003A800F8DD02B07047000010B5044600F0010205
:1003B8000121094803F06EFFC4F3400220214FF0E9
:1003C800904003F067FFC4F3800280214FF0904013
:1003D80003F060FF10BD00BF0004004810B50446DC
:1003E80000F001024FF400714FF0904003F052FF0B
:1003F800C4F340024FF480714FF0904003F04AFF7D
:10040800C4F380024FF40041014803F043FF10BDDC
:100418000004004870B5064600240AE001212E4871
:1004280004F094FB30B301212C4804F08FFB80B317
:100438000134072C4EDCE5B22846FFF7CFFF2846EB
:10044800FFF7B2FFFFF7A2FF254D284604F0BEFADA
:10045800214804F0BBFA214804F0B8FA01212846E3
:1004680004F074FB0028D9D1284604F021FC26F8B2
:100478001400D3E7184804F01BFC80B2032C04DCFA
:1004880004F1080326F81300CDE7072CCBD13083FD
:10049800C9E7124804F00CFC80B2042C14D007DC25
:1004A800022C15D0032C11D0012CC1D1F084BFE748
:1004B800062C07D0072C03D0052CB9D1F083B7E759
:1004C8007083B5E7B083B3E73084B1E77084AFE7F2
:1004D800B084ADE770BD00BF8C050020DC050020AE
:1004E8003C05002010B5642003F08CF81D4C204614
:1004F800FFF790FF322003F085F82046FFF78AFFC8
:1005080000221BE0174B33F812C0174902EBC20058
:1005180001EB800321F820C0C821598013491961D3
:100528004FF07C51596199611149D961114919629A
:10053800002119730021996059600132132AE1DD05
:1005480000230D4A13700AE00C4A002122F82310F8
:1005580002EB83024FF000009070D1700133032B3F
:10056800F2DD10BDF0040020200200209A99993F86
:10057800CDCC4C3ECDCCCC3D34050020240500200C
:1005880000EBC002654B33F82230C91A0029B8BF06
:10059800494289B23B290AD9604B03EB82035B8845
:1005A8008B4205D25D4B03EB8203598000E00021AA
:1005B80007EE901AF8EE677A00EBC002574B03EB90
:1005C80082035B8806EE903AF8EE666A87EEA67AB2
:1005D800F7EE007AB4EEE77AF1EE10FA01DDB0EE4C
:1005E800677ADFED4F7A67EE277A00EBC0024B4B54
:1005F80003EB820393ED077AB4EEE77AF1EE10FA93
:1006080001DDDFED487A00EBC002444B03EB8203C7
:10061800C3ED017AD3ED086A9FED417A37EE667A29
:10062800D3ED046AF4EEE76AF1EE10FA17DC00EB9A
:10063800C0023A4B03EB82031B7B002B3AD0374BAB
:1006480003EB8203D3ED026AF4EEE76AF1EE10FAE7
:100658000DD5324B03EB8200C0ED027A70472F4B69
:1006680003EB820200211173C2ED027A704700EB9E
:10067800C0022A4B03EB820393ED066A76EEC66A44
:10068800F4EEE76AF1EE10FA47DDB4EEE77AF1EE40
:1006980010FA07D4214B03EB820200211173C2ED3B
:1006A800027A704700EBC0001C4B03EB8003C3EDDC
:1006B800027A704700EBC002184B03EB820393EDFC
:1006C800026A93ED057A36EE077AB4EEE77AF1EE30
:1006D80010FA07D5114B03EB820201211173C2ED09
:1006E800027A7047F4EEC66AF1EE10FA09DD0B4B98
:1006F80000EBC00203EB820201211173C2ED027A02
:100708007047B4EEE76AF1EE10FA06DD00EBC000C0
:10071800024B03EB8003C3ED027A704720020020EE
:10072800CDCC4C40000000002DE9F04387B00023F9
:100738000193029303930493059314238DF80530D2
:10074800874B1B7843B100239C4698461E461F469C
:100758009E46994618463AE01422824901A805F0B7
:1007680026FB002800F02781142201A97E4805F005
:10077800E7FA002840F01F817A4C01AD0FCD0FC475
:100788002B68236017E1643A784D35F822402043FE
:1007980005EB8205AD780DB1FF25A946734D05EB34
:1007A8008202D2780AB14FF0FF0E14F0010F00D088
:1007B8000F4614F0020F00D00E4614F0040F00D0BC
:1007C800884614F0080F00D161468C460133132B7C
:1007D80064DC03EBC301664A02EB8102117B00294A
:1007E800F4D0644AD25CA2F16404E4B2032CCAD9FE
:1007F800092A3DD018D8052A31D00CD8032A43D06D
:1008080005D8012A42D0022AE0D10E46DEE7042AA2
:10081800DCD18C46DAE7072A24D0082A25D0062A14
:10082800D4D140F02000D1E70E2A2AD00ED80C2AC5
:1008380024D006D80A2A1ED00B2AC7D140F48060DB
:10084800C4E70D2AC2D140F40050BFE7102A1FD0D8
:10085800112A20D00F2AB9D140F40040B6E740F061
:100868001000B3E740F04000B0E740F08000ADE78B
:1008780040F48070AAE740F40070A7E740F4805085
:10088800A4E740F48040A1E788469FE70F469DE72C
:10089800FF2291469AE74FF0FF0E97E7364B1B78F9
:1008A800022B13D04246002A41D0BCF1000F3CD0A5
:1008B800002B41D0012B3FD0022B3DD12F4A12688B
:1008C800B2F1FF3F2ED040F0080035E0424632B189
:1008D8002B4A12781AB9294A4FF0FF311160BCF13E
:1008E800000F05D0274A127812B9244A0121116055
:1008F8002FB1254A127812B9244A0121116036B164
:10090800234A12781AB9214A4FF0FF3111601C4A64
:1009180082F800801B4A82F800C01B4A17701C4AE4
:100928001670BFE740F0040006E040F00400BCF198
:10093800000F01D040F0080077B35EB37BB3012B02
:1009480008D0022B2BD1114B1B68012B05D040F08E
:10095800020024E040F0010021E040F001001EE028
:10096800000000200C0200202C0600202405002096
:100978002002002004000020340500201C0500206F
:10098800230500202205002021050020180500204D
:100998002005002040F001000EB140F00200ADF843
:1009A80006008DF808908DF809E014220A4901A87C
:1009B80005F0FDF910B907B0BDE8F083142201A9CC
:1009C800064805F0BDF90028F5D1034C01AD0FCD5F
:1009D8000FC42B682360EEE70C0200202C060020D1
:1009E80008B50378302B2CD0102B00F0A180112BE8
:1009F80000F0E980202B00F01281602B00F070815C
:100A0800702B00F07181402B00F07681502B00F0A4
:100A18007781802B00F07881812B40F088804378A3
:100A2800032B00F28480C278817841EA0221BA4A15
:100A380022F82310017902EB830399704279DA7066
:100A480075E040220021B54805F0C1F93023B34ACA
:100A5800137000220FE0F5EEC07AF1EE10FA21D4FF
:100A68009FEDAF7A67EE877A0132FCEEE77A17EEF0
:100A7800903AAA498B54132A17DC02EBC201A94BFE
:100A880003EB8103D3ED016A9FEDA77AC6EE877A5F
:100A9800B7EE007AF4EEC77AF1EE10FADBDDF7EE86
:100AA800007ADDE7DFEDA17ADAE700230AE003EB5D
:100AB800C3019C4A02EB8102107B03F1150297499E
:100AC80088540133132BF2DD002211E0F5EEC07AD1
:100AD800F1EE10FA23D49FED927A67EE877A02F14D
:100AE8002901FCEEE77A17EE903A8C48435401321C
:100AF800132A17DC02EBC2018A4B03EB8103D3ED07
:100B0800026A9FED897AC6EE877AB7EE007AF4EE2C
:100B1800C77AF1EE10FAD9DDF7EE007ADBE7DFED00
:100B2800837AD8E740227D49814805F010F908BD4D
:100B3800402200217F4805F04AF910237D4A1370AE
:100B48007D4B1B7853700023132B13DC03EBC3017D
:100B5800744A02EB8102D2ED047AB2EE047A67EEAF
:100B6800877A991CFCEEE77A17EE902A714842546E
:100B78000133E9E70023132B14DC03EBC301694AB3
:100B880002EB8102D2ED057AB2EE047A67EE877A3B
:100B980003F11601FCEEE77A17EE902A65484254F5
:100BA8000133E8E70023132B07DC03F12A0263492A
:100BB800C85C604988540133F5E740225D495C48C8
:100BC80005F0C5F8B3E7402200215D4805F0FFF8BD
:100BD80011235B4A1370002119E08B0003F1010E09
:100BE8004D4A32F821C0564800F80EC003F1020EF3
:100BF8004FEA1C2C00F80EC003F1030C1A4492F8BB
:100C080002E000F80CE00433D278C2540131032921
:100C1800E3DD40224A49464805F099F887E74378DA
:100C2800132B84D8827807EE102AB8EE477AF2EEB2
:100C3800046AC7EE267A9FED437AF4EEC77AF1EE9E
:100C480010FA09D4B0EE087AF4EEC77AF1EE10FA89
:100C580004DDF0EE087A01E0DFED3A7A03EBC30138
:100C6800304A02EB8102C2ED047AC27807EE102AFC
:100C7800B8EE477AF2EE046AC7EE267A9FED317A2B
:100C8800F4EEC77AF1EE10FA09D4B0EE087AF4EE71
:100C9800C77AF1EE10FA04DDF0EE087A01E0DFED34
:100CA800297A204903EBC30201EB8202C2ED057ADF
:100CB800C2ED067A90F804C007EE90CAF8EE677A9B
:100CC8009FED217A87EE876A407907EE900AF8EE61
:100CD800677AC7EE876A82ED076AC2ED086A26E777
:100CE8004278154B1A7022E743788278132B3FF627
:100CF8001EAF1249CA541AE7144B01221A7016E79C
:100D0800134B01221A7012E74378012B14BF0023FA
:100D18000123104A13700AE724050020CC010020A3
:100D280000007F4320020020CDCC4C400000000092
:100D38002C0600208C01002034050020040000202F
:100D48004C010020CDCCCC3D0000C8423605002027
:100D5800350500200000002072B6FEE710B59EB0F1
:100D680014AC28220021204605F031F800210F910B
:100D780010911191129113913C22684605F027F8C1
:100D8800012314934FF4803215921693189302237B
:100D98001B931C924FF4E0131D93204602F046FC6F
:100DA800D8B90F230F930221109111904FF480624C
:100DB800129213900FA802F083FF80B90A4B009398
:100DC8004FF4807309934FF400530A930E906846CA
:100DD80003F04AF828B91EB010BDFFF7BDFFFFF7B2
:100DE800BBFFFFF7B9FF00BF8001020038B502F072
:100DF800E5FBFFF7B3FF00F077F800F0F1F800F03B
:100E080029F900F06FF9642002F0FCFB324C20460F
:100E1800FFF700FBA38C62889B1A002BB8BF5B42CC
:100E2800B3F5FA7F09DC2D4B00221A70FFF75AFB45
:100E3800FFF75CFA00F04EFA3DE0284B01221A70E9
:100E480002F0DAFB044602F0D7FB031B41F28732BB
:100E5800934210D8204D2846FFF7DCFAAB8C6A88FD
:100E68009B1A002BB8BF5B42B3F5967F03DB0A20C1
:100E780002F0C8FBE7E74FF4FA7002F0C3FBD5E7CE
:100E8800642002F0BFFBFFF72DFB154B00221A7000
:100E980015E0FFF7BBF9134B00221A7013E00E4B55
:100EA80033F814102046FFF76BFB0134132CF6DDE2
:100EB8000A4B1B7863B10A4B1B78002BE0D1094B16
:100EC8001B78002BE5D10448FFF7A4FA0024EDE7CE
:100ED800FFF72AFCEFE700BFF004002037050020E9
:100EE80036050020350500202DE9F04389B003AD13
:100EF800002403940494059406940794364B5A6985
:100F080042F480025A615A6902F480020092009AFF
:100F18005A6942F400325A615A6902F40032019265
:100F2800019A5A6942F480225A615B6903F480236A
:100F38000293029B22464FF468714FF0904003F0F1
:100F4800A9F9264E224648F24101304603F0A2F99B
:100F58000823039303270497059429464FF09040EC
:100F680003F0B4F84FF4687303934FF00108CDF819
:100F780010800594069429464FF0904003F0A6F897
:100F880048F241030393CDF810800594069429464E
:100F9800304603F09BF84FF4004303934FF01209D7
:100FA800CDF81090059406974FF00408CDF81C80F2
:100FB80029464FF0904003F089F880230393CDF839
:100FC800109005940697CDF81C802946304603F00A
:100FD8007DF809B0BDE8F083001002400004004825
:100FE80000B587B000230093019302930393049301
:100FF80005931648164A026043608360036143768E
:1010080080F82030C36201228262C360C26180F826
:101018003030042242610376436303F087FB70B9E2
:1010280001230093019300230393029304930593F0
:101038006946064803F040FE20B907B000BDFFF737
:101048008BFEEDE7FFF788FEF7E700BFDC05002021
:101058000001005000B58BB0002307930893099353
:101068000193029303930493059306931B481C4A28
:101078000260436083600361437680F82030C36276
:1010880001228262C360C26180F83030042242616A
:101098000376436303F04AFBB0B90023079307A91B
:1010A8000E4804F029F890B905230193012302930F
:1010B8000023049303930593069301A9074803F0BB
:1010C800FBFD38B90BB000BDFFF746FEE5E7FFF7BB
:1010D80043FEE9E7FFF740FEF4E700BF8C05002078
:1010E8000004005000B587B00023009301930293D9
:1010F8000393049305931648164A0260436083607D
:101108000361437680F82030C36201228262C360A3
:10111800C26180F83030042242610376436303F0F1
:1011280005FB78B90423009301230193002303935B
:101138000293049305936946054803F0BDFD20B961
:1011480007B000BDFFF708FEECE7FFF705FEF7E77D
:101158003C0500200005005000B58DB00023079322
:10116800089309930A930B930368394A934207D06B
:10117800384A934221D0384A934243D00DB000BD3B
:10118800364B5A6942F080525A615A6902F08052CD
:101198000192019A5A6942F400325A615B6903F478
:1011A80000330293029B102307930323089307A994
:1011B8004FF0904002F08AFFE0E7294A13680133B4
:1011C8001360012B13D0254B5A6942F480225A61CF
:1011D8005B6903F480230493049B4FF40053079343
:1011E8000323089307A91F4802F070FFC6E71B4BAB
:1011F8005A6942F000525A615B6903F00053039345
:10120800039BE0E7164A136801331360012B13D0E0
:10121800124B5A6942F480225A615B6903F48023B5
:101228000693069B4FF4804307930323089307A96B
:101238000C4802F04BFFA1E7084B5A6942F00052F4
:101248005A615B6903F000530593059BE0E700BF13
:10125800000100500004005000050050001002403A
:101268003805002000040048FEE7FEE7FEE7FEE739
:10127800FEE770477047704708B502F0B1F908BD3E
:1012880008B5024800F0E1FF08BD00BF040B0020CC
:1012980082B00A4B9A6942F001029A619A6902F097
:1012A80001020092009ADA6942F08052DA61DB6941
:1012B80003F080530193019B02B070470010024075
:1012C800034AD2F8883043F47003C2F88830704774
:1012D80000ED00E008B500220B490C4803F0CAFFF6
:1012E80048B90B49094803F0DCFF38B9074803F04F
:1012F800DFFF30B908BDFFF72FFDF2E7FFF72CFD40
:10130800F4E7FFF729FDF5E7500000202C06002040
:10131800F4000020104B1B7883B9104BFF221A7180
:101328005A719A715E221A7204225A728E229A7225
:101338000222DA7212230B8008487047074B0022FA
:101348001A715A719A7183221A7204225A7251229E
:101358009A725722DA72EDE7370500203C00002028
:1013680004230B8000487047380000200023934274
:101378001DD200B510E00CF1370C01F813C00001C4
:101388004FEA430C0CF1010C4FF0000E01F80CE091
:101398000133DBB2934209D24FEA107CB0F1204FFF
:1013A800E9D20CF1300C01F813C0E8E700BD704732
:1013B8000B4BD3F8AC07D3F8B027D3F8B437C01821
:1013C80000D1704710B5144608220649FFF7CEFF32
:1013D8000422044B03F110012046FFF7C7FF10BD9C
:1013E80000F0FF1F1E00002008B51A230B80FFF72E
:1013F800DFFF014808BD00BF1C00002010B50A46E9
:10140800034C2146034804F0CAFB204610BD00BF28
:10141800F0080020585E000810B50A46034C214623
:10142800034804F0BCFB204610BD00BFF0080020B4
:101438006C5E000810B50A46034C2146034804F0C8
:10144800AEFB204610BD00BFF00800207C5E0008FF
:1014580010B50A46034C2146034804F0A0FB204679
:1014680010BD00BFF00800208C5E000810B588B0E1
:101478000023039304930593069307930268174B7D
:101488009A4201D008B010BD154C636943F400338B
:101498006361636903F400330193019B4FF4C05304
:1014A800039302230493032306930E23079303A9AC
:1014B8004FF0904002F00AFEE36943F40003E36151
:1014C800E36903F400030293029B002211461420EF
:1014D80002F030FF142002F03DFFD3E7005C00402B
:1014E8000010024008B500F52671D0F8D00203F0CC
:1014F800F7FE08BD08B501EB810300EBC303D3F881
:101508006421D0F8D00203F018FF08BD08B501EB3C
:10151800810300EBC3035A6AD0F8D00203F053FFEB
:1015280008BD08B5D0F8D00203F0F4FF08BD10B527
:1015380004460121D0F8D00203F0D5FFD4F8D00238
:1015480003F0A9FF10BD08B5D0F8D00203F0CEFF14
:1015580008BD08B5D0F8D00203F0D1FF08BD0000DF
:1015680010B504461A48C0F8D042C4F8C002194B56
:1015780003600823037102234371C371002343727C
:10158800C37200F025F9F8B9182300221146D4F8DF
:10159800C00201F026F8582300228021D4F8C002A6
:1015A80001F01FF84FF4807300228121D4F8C002A3
:1015B80001F017F84FF4A07300220221D4F8C002FA
:1015C80001F00FF8002010BDFFF7C6FBDCE700BFF5
:1015D800040B0020005C0040D0F8C03211F0800FEE
:1015E80008D101F07F0101EB810103EBC10393F8FE
:1015F8005201704701F07F0101EB810103EBC10348
:10160800987C704700487047F00A0020704702280D
:1016180004D005D808B102207047704701207047F0
:101628000220704708B5D0F8C00200F023F9FFF790
:10163800EEFF08BD08B594461A466346D0F8C002C6
:1016480000F09CFEFFF7E3FF08BD08B5D0F8C00224
:1016580000F0D6FEFFF7DBFF08BD08B5D0F8C002E2
:1016680000F047FFFFF7D3FF08BD08B5D0F8C00268
:1016780000F078FFFFF7CBFF08BD08B5D0F8C0022F
:1016880000F0D0FDFFF7C3FF08BD08B5D0F8C002D1
:1016980000F009FFFFF7BBFF08BD08B5D0F8C0028E
:1016A80000F0E4FEFFF7B3FF08BD10B512F4804F59
:1016B80047D00468B4F8503091F800C04FEACC0E17
:1016C8001EFA83F3023304EB4304B4F80044C4F372
:1016D80009048B69A3422AD31B1B8B618B6983B9CD
:1016E800D0F800E03EF82C309BB223F4804323F07E
:1016F800700383F4005343F4004343F080032EF84F
:101708002C3012F0400F0FD0026891F800C032F868
:101718002C309BB223F4E04323F0700343F40043DE
:1017280043F0C00322F82C3024B9204610BD002312
:101738008B61D3E723460A894969006801F001FFF4
:10174800F3E70468B4F8503091F800C04FEACC0EC3
:101758001EFA83F3063304EB4304B4F80044C4F3DD
:1017680009048B69A34230D31B1B8B618B6983B936
:10177800D0F800E03EF82C309BB223F4804323F0ED
:10178800700383F4005343F4004343F080032EF8BE
:101798002C3012F0400F0FD1026891F800C032F8D7
:1017A8002C309BB223F4E04323F0700343F400434E
:1017B80043F0C00322F82C30002CB6D023464A89C7
:1017C8004969006801F0BDFEAFE700238B61CDE7F2
:1017D80000284DD010B5044690F891323BB1032350
:1017E80084F89132206800F022FF002315E080F889
:1017F8009032FFF73BFEF2E703EB830204EBC202F1
:101808000121517413740021D174116251620133A2
:1018180003EB8302D200A150DBB220799842EBD8C7
:10182800002316E003EB830204EBC202002182F8D6
:10183800511182F8503182F85311C2F86011C2F880
:10184800641103EB830204EBC202C2F8681101338E
:10185800DBB29842E6D8234653F8040B93E8060017
:1018680000F0F0FE00202073012384F8913210BDAF
:101878000120704790F89032012B13D010B5044620
:101888004FF0010380F89032006800F0C7FE012194
:10189800204600F0C2FE206801F04AFA002084F8D1
:1018A800900210BD0220704770B505460C461646DA
:1018B80012F0400F00F00D810268B2F8503009783C
:1018C800C80010FA83F3023302EB4302B2F8002493
:1018D800C2F30902A36993424ED99B1AA361A36973
:1018E800002B66D16378002B49D12A68B2F85030B2
:1018F80012FA83F303EB0113B3F80424C2F30902C9
:10190800A3F80424B3F804246FEA42426FEA52426F
:1019180092B2A3F804242A686378002B3CD1B2F869
:10192800503012FA83F3227803EB0213B3F80C2435
:10193800C2F30902A3F80C24B3F80C246FEA42425C
:101948006FEA524292B2A3F80C2421782846FFF796
:10195800DDFD16F4804F41D02A68217832F8213015
:101968009BB223F4E04323F0700343F4404343F075
:10197800800322F8213031E00023A361AFE7012B77
:10198800C9D12A68B2F8503012FA83F303EB011375
:101998000022A3F80424BEE7012BD6D1B2F85030B8
:1019A80012FA83F3227803EB02130022A3F80C2423
:1019B800CBE716F4804F0DD0286830F821309BB261
:1019C80023F4E04323F0700343F4404343F08003DF
:1019D80020F8213094F82430012B12D02A6821787D
:1019E80032F821309BB223F4E04323F0400383F024
:1019F800300343F4004343F0800322F821300020F1
:101A080070BD636913446361E3691344E361216A48
:101A1800236999421DD3C91A21626278002A43D1E9
:101A28002968B1F8502011FA82F2217802EB0112EC
:101A3800B2F80414C1F30901A2F80414A3B9B2F866
:101A480004146FEA41416FEA514189B2A2F80414C3
:101A58002CE019B984F824101346DEE7002384F833
:101A6800243023620B46D8E73E2B0DD8590813F0D3
:101A7800010F00D00131B2F8040480B2890289B2A2
:101A88000143A2F8041411E0580913F01F0F00D104
:101A98000138B2F8041489B2800280B2014341F4DB
:101AA8000041A2F8041401E0012A06D09BB2228961
:101AB8006169286801F042F990E72968B1F8502077
:101AC80011FA82F2217802EB011299B2A2F80414F9
:101AD800ECE70268B2F850300978C80010FA83F3CE
:101AE800063302EB4302B2F80024C2F30902A369E9
:101AF80093424FD39B1AA361A369002B67D16378E4
:101B0800002B4AD12A68B2F8503012FA83F303EB5B
:101B18000113B3F80424C2F30902A3F80424B3F8A8
:101B280004246FEA42426FEA524292B2A3F80424B4
:101B38002A686378002B3DD1B2F8503012FA83F34B
:101B4800227803EB0213B3F80C24C2F30902A3F8BA
:101B58000C24B3F80C246FEA42426FEA524292B264
:101B6800A3F80C2421782846FFF7D0FC16F4804F00
:101B78007FF434AF2A68217832F821309BB223F4FD
:101B8800E04323F0700343F4404343F0800322F81A
:101B9800213023E70023A361AEE7012BC8D12A68CF
:101BA800B2F8503012FA83F303EB01130022A3F8C2
:101BB8000424BDE7012BD5D1B2F8503012FA83F3D3
:101BC800227803EB02130022A3F80C24CAE716F4C8
:101BD800804F0DD1286830F821309BB223F4E043C0
:101BE80023F0700343F4404343F0800320F821308E
:101BF80094F82430012B7FF4F1AE636913446361D8
:101C0800E3691344E361216A236999421DD3C91A20
:101C1800216229686278002A42D1B1F8502011FA6D
:101C280082F2217802EB0112B2F80C14C1F3090117
:101C3800A2F80C14A3B9B2F80C146FEA41416FEA88
:101C4800514189B2A2F80C142CE019B984F8241077
:101C58001346DEE70023236284F824300B46D8E7D6
:101C68003E2B0DD8590813F0010F00D00131B2F8FE
:101C78000C0480B2890289B20143A2F80C1411E065
:101C8800580913F01F0F00D10138B2F80C1489B2AB
:101C9800800280B2014341F40041A2F80C1401E033
:101CA800012A06D09BB262896169286801F046F86A
:101CB80094E6B1F8502011FA82F2217802EB011271
:101CC80099B2A2F80C14EDE72DE9F0410546286811
:101CD800B0F8443013F4004F00F0A182B0F844404B
:101CE800A3B214F00F0440F0E18013F0100F66D097
:101CF80003889AB213F4006F40F0948012F4004FF6
:101D0800E5D003889BB223F070031B051B0D43F03D
:101D1800800303802868B0F8503095F85021D2002D
:101D280012FA83F3063300EB4303B3F80034C3F32A
:101D38000903C5F86C318BB1D5F8641171B1B5F8E8
:101D4800562101F0FEFBD5F86431D5F86C21134417
:101D5800C5F8643100212846FFF7CCFB2A681388B0
:101D680099B213F4006FB2D101F44051B1F5405F5C
:101D7800ADD0B2F8503012FA83F3B3F80C24C2F3A2
:101D88000902A3F80C24D5F86021002A6ED1B3F813
:101D98000C246FEA42426FEA524292B2A3F80C2432
:101DA8002A6813889BB223F4804323F0700383F4DA
:101DB800405343F4004343F08003138087E70388CC
:101DC8009BB223F4E14323F070036FEA43436FEAC5
:101DD80053439BB203802A68B2F85030297CC9006B
:101DE80011FA83F3023302EB4302B2F80034C3F36F
:101DF8000903EB626A6A1A446A6200212846FFF7FF
:101E080085FB2B7B002B3FF462AFAB6A002B7FF482
:101E18005EAF2B7B2A6843F08003A2F84C30002386
:101E28002B7354E7B0F8503095F85021D20012FACD
:101E380083F3063300EB4303B3F80034C3F3090319
:101E4800C5F86C31B5F8562105F5267101F079FB16
:101E58002A6813889BB223F070031B051B0D43F0FF
:101E6800800313802846FFF73DFB30E73E2A0DD854
:101E7800510812F0010F00D00131B3F80C2490B2D0
:101E88008A0292B20243A3F80C2489E7510912F09E
:101E98001F0F00D10139B3F80C2492B2890289B21C
:101EA8000A4342F40042A3F80C2479E730F82430BE
:101EB8009EB213F4004F50D116F0800F3FF407AFD5
:101EC80004EB8401C900103129442A6832F824300F
:101ED8009BB223F4E14323F070036FEA43436FEAB4
:101EE80053439BB222F8243004EB840305EBC3036D
:101EF800DB7C012B00F0F38016F4807F40F08A81B0
:101F08002868B0F8503004EB840205EBC202167C56
:101F1800F20012FA83F3023300EB4303B3F8003400
:101F2800C3F30903621C02EB820255F832209A427D
:101F380040F25381671C07EB8707D21A45F8372010
:101F4800621C02EB820255F83220002A40F04C81D4
:101F580031462846FFF7DAFAB9E630F824309BB262
:101F680023F070031B051B0D43F0800320F8243079
:101F780004EB8401C90001F5A87105EB010804EB25
:101F8800840305EBC30393F85C31002B42D1286826
:101F9800B0F8503004EB840205EBC20292F85021ED
:101FA800D20012FA83F3063300EB4303B3F800744C
:101FB800C7F3090717BB04EB840305EBC303D3F886
:101FC8006C213A44C3F86C21D3F864213A44C3F82D
:101FD8006421D3F868313BB104EB840305EBC303F8
:101FE800D3F860319F4275D204EB840305EBC30339
:101FF80093F850112846FFF77DFA5DE704EB84015A
:1020080005EBC1013B46B1F85621D1F8641101F046
:1020180098FAD0E704EB840305EBC30393F8533134
:10202800022B35D0296804EB840205EBC20292F832
:10203800500131F820309BB223F4E04323F07003C1
:1020480043F4004343F0C00321F82030286892F895
:10205800503130F8232012F4804F20D0B0F85020AF
:10206800DB0013FA82F3023300EB4303B3F8007486
:10207800C7F30907002F9ED004EB840105EBC101CB
:102088003B46B1F85821D1F8641101F05AFA92E7A9
:10209800324641462846FFF708FB07468BE7B0F86B
:1020A8005020DB0013FA82F3063300EB4303B3F846
:1020B8000074C7F30907002F3FF47DAF04EB8401D8
:1020C80005EBC1013B46B1F85A21D1F8641101F082
:1020D80038FA70E74146286800F043FEECE6631CD6
:1020E80003EB8303DB000022EA5004EB840305EBD7
:1020F800C3031B7F1BB316F0400F3BD004EB8403D4
:1021080005EBC3035B7C1BBB2A68B2F8503012FA9C
:1021180083F304EB840205EBC202127C03EB021387
:10212800B3F80424C2F30902A3F80424B3F804247E
:102138006FEA42426FEA524292B2A3F8042404EBD7
:10214800840405EBC404217C2846FFF7DFF9BEE5CB
:10215800012BF4D12A68B2F8503012FA83F304EB59
:10216800840205EBC202127C03EB02130022A3F8DF
:102178000424E4E72A6804EB840305EBC3035B7CCF
:10218800D3B9B2F8503012FA83F304EB840205EBAA
:10219800C202127C03EB0213B3F80C24C2F3090247
:1021A800A3F80C24B3F80C246FEA42426FEA5242B7
:1021B80092B2A3F80C24C2E7012BC0D1B2F8503078
:1021C80012FA83F304EB840205EBC202127C03EBE0
:1021D80002130022A3F80C24B1E7621C02EB82026E
:1021E800D2000027AF50ABE604EB840205EBC20235
:1021F800566A1E445662013404EB840205EBC2029F
:10220800526804EB840405EBC4041344636000F0D3
:10221800A8FD5CE532462846FFF746FB57E5002057
:10222800BDE8F08190F89032012B0CD010B504462F
:10223800012380F890320173006800F073FD0020DC
:1022480084F8900210BD0220704710B5044600685B
:1022580000F070FD10F4004F1ED110F4806F1FD1F4
:1022680010F4804F2DD110F4005F34D110F4805F4A
:102278003BD110F4006F57D110F4007F71D110F4E6
:10228800807F27D02268B2F844309BB223F4807351
:102298009BB2A2F844301DE02046FFF715FD19E077
:1022A8002268B2F844309BB223F480639BB2A2F850
:1022B80044302046FFF73BF900212046FFF7B2FFE4
:1022C80008E02268B2F844309BB223F480439BB202
:1022D800A2F8443010BD2268B2F844309BB223F40F
:1022E80000539BB2A2F84430F4E72268B2F84030B9
:1022F8009BB223F004039BB2A2F840302268B2F8E4
:1023080040309BB223F008039BB2A2F8403020462D
:10231800FFF71FF92268B2F844309BB223F48053C8
:102328009BB2A2F84430D5E72268B2F840309BB29D
:1023380043F00803A2F840302268B2F844309BB258
:1023480023F400639BB2A2F844302268B2F840300C
:102358009BB243F00403A2F840302046FFF7F3F89D
:10236800B8E72268B2F844309BB223F400739BB2FA
:10237800A2F844302046FFF7D4F8ABE710B504467E
:10238800084611F0800F26D101F0070C0CEB8C0EDB
:102398004FEACE0E0EF5A87E04EB0E010CEB8C0C6A
:1023A80004EBCC0C4FF0000E8CF851E100F0070064
:1023B80008700A61CB70022B1DD094F89032012B63
:1023C8001CD0012384F89032206800F04CF90020DA
:1023D80084F8900210BD01F0070C0CEB8C01C900C9
:1023E800103121440CEB8C0C04EBCC0C4FF0010E9B
:1023F8008CF811E0DAE700230B71DEE70220E9E749
:1024080010B504460A4611F0800F1FD101F00700ED
:1024180000EB8003DB0003F5A873E11800EB8000F4
:1024280004EBC000002380F8513102F007020A7063
:1024380094F89032012B17D0012384F89032206849
:1024480000F00FFB002084F8900210BD01F0070097
:1024580000EB8003DB001033E11800EB800004EB95
:10246800C00001234374E0E70220EEE710B501F055
:10247800070C0CEB8C01C90001F5A8710CEB8C0E54
:1024880000EBCE0ECEF86421CEF868310024CEF8E9
:102498006C418EF851418EF850C10144006800F03B
:1024A80060FC204610BD38B501F0070C0CEB8C0120
:1024B800C90010310CEB8C0E00EBCE0ECEF82420A8
:1024C8000CF1010202EB820440F8343001258EF849
:1024D8003450CEF8303000EBC402002454608EF83B
:1024E80011508EF810C00144006800F03AFC2046F4
:1024F80038BD0B4601F00702017991422ED310B581
:10250800044613F0800F1DD103EB8301C90001F5C8
:10251800A871014403EB830300EBC303002083F895
:10252800510101238B700A7094F89032012B17D057
:10253800012384F89032206800F07EFB002084F8A4
:10254800900210BD02EB8201C9001031014402EB78
:10255800820300EBC30301205874E2E701207047AF
:102568000220EEE70B46017903F00F02914234D3C3
:1025780010B5044613F0800F21D103F0070202EBD7
:102588008201C90001F5A871014402EB820200EB47
:10259800C202002082F8510100228A7003F007036A
:1025A8000B7094F89032012B19D0012384F89032E3
:1025B800206800F066FB002084F8900210BD03F04C
:1025C800070202EB8201C9001031014402EB8202CA
:1025D80000EBC20201205074DEE7012070470220A0
:1025E800ECE711F0800F0BD001F0070101EB81013E
:1025F800C9001031084452B90273C38000207047E3
:1026080001EB8101C90001F5A8710844F3E7012233
:10261800027303811B0C4381F0E7704703460020D7
:10262800A3F844004FF43F42A3F840207047B0F8A5
:1026380040309BB223F47C535B045B0CA0F8403021
:102648000020704782B0034602A800E90600012274
:10265800A3F840200020A3F84000A3F84400A3F802
:10266800500002B0704700B5034691F800C030F83A
:102678002C2092B222F4EC4222F0700292B2C87876
:10268800022867D008D878B1012803D142F48062C3
:1026980000200BE0012009E0032803D142F4C062C6
:1026A800002003E0012001E042F4007248F2800EAD
:1026B80042EA0E0223F82C2091F800C033F82C20AF
:1026C80092B222F4E04222F070024CEA020242EA9C
:1026D8000E0223F82C200A7B002A40F0DC804A787E
:1026E800002A48D0B3F8502013FA82F291F800C0BB
:1026F80002EB0C12B1F806C04FEA5C0C4FEA4C0C26
:10270800A2F800C491F800C033F82C2012F0400F52
:102718000CD033F82C2092B222F4E04222F070025E
:1027280042F4004242F0C00223F82C20CA78012A61
:1027380012D0097833F8212092B222F4E04222F034
:10274800400282F0200242F4004242F0800223F864
:1027580021201AE10020A9E7097833F8212092B254
:1027680022F4E04222F0400242F4004242F08002A9
:1027780023F8212009E1B3F8502013FA82F291F8E6
:1027880000C002EB0C12B1F806C04FEA5C0C4FEA2D
:102798004C0CA2F808C4B3F8502013FA82F291F84E
:1027A80000C002EB0C12B2F80CC4CCF3090CA2F86E
:1027B8000CC4D1F810C0BCF1000F2FD1B2F80CC472
:1027C8006FEA4C4C6FEA5C4C1FFA8CFCA2F80CC404
:1027D80091F800C033F82C2012F4804F0CD033F855
:1027E8002C2092B222F4E04222F0700242F44042DD
:1027F80042F0800223F82C200978E1BB33F821202D
:1028080092B222F4804222F0700282F4405242F4E2
:10281800004242F0800223F82120B6E0BCF13E0FCE
:1028280013D84FEA5C0E1CF0010F01D00EF1010E17
:10283800B2F80CC41FFA8CFC4FEA8E2E1FFA8EFEDB
:102848004CEA0E0CA2F80CC4C2E74FEA5C1E1CF05E
:102858001F0F01D10EF1FF3EB2F80CC41FFA8CFC19
:102868004FEA8E2E1FFA8EFE4CEA0E0C4CF4004CEA
:10287800A2F80CC4ACE733F8212092B222F48042CB
:1028880022F0700282F4005242F4004242F08002C8
:1028980023F8212079E0CA78022A77D091F800C07D
:1028A80033F82C2092B222F4E24222F0700242F471
:1028B800004242F0800223F82C20B3F8502013FA8B
:1028C80082F291F800C002EB0C12B1F808C04FEA8E
:1028D8005C0C4FEA4C0CA2F800C4B3F8502013FA71
:1028E80082F291F800C002EB0C12B1F80AC04FEA6C
:1028F8005C0C4FEA4C0CA2F808C44A78002A55D15F
:1029080091F800C033F82C2012F4804F0CD033F823
:102918002C2092B222F4E04222F0700242F44042AB
:1029280042F0800223F82C2091F800C033F82C20C4
:1029380012F0400F0CD033F82C2092B222F4E0426F
:1029480022F0700242F4004242F0C00223F82C2028
:1029580091F800E033F82E2092B222F4804222F05F
:10296800700282F4405248F2800C42EA0C0223F8CA
:102978002E20097833F8212092B222F4E04222F086
:10298800400242EA0C0223F8212000BD91F800C061
:1029980033F82C2092B222F4E04222F0700242F482
:1029A800014242F0800223F82C2086E791F800C00B
:1029B80033F82C2012F4804F0CD033F82C2092B22C
:1029C80022F4E04222F0700242F4404242F08002D7
:1029D80023F82C2091F800C033F82C2012F0400F77
:1029E8000CD033F82C2092B222F4E04222F070028C
:1029F80042F4004242F0C00223F82C20CA78012A8F
:102A08001FD091F800C033F82C2092B222F4E04293
:102A180022F0400282F0200242F4004242F080029A
:102A280023F82C20097833F8212092B222F480422E
:102A380022F0700242F4004242F0800223F8212082
:102A4800A3E791F800C033F82C2092B222F4E042B8
:102A580022F0400242F4004242F0800223F82C2087
:102A6800E0E70B7B002B46D14B7813B30A7830F89C
:102A7800223013F0400F0CD030F822309BB223F4F0
:102A8800E04323F0700343F4004343F0C00320F80D
:102A980022300A7830F822309BB223F4E04323F046
:102AA800400343F4004343F0800320F82230002021
:102AB80070470A7830F8223013F4804F0CD030F881
:102AC80022309BB223F4E04323F0700343F44043E5
:102AD80043F0800320F822300A7830F822309BB285
:102AE80023F4804323F0700343F4004343F080034E
:102AF80020F82230DBE74B78002B4ED10A7830F8EB
:102B0800223013F4804F0CD030F822309BB223F4DB
:102B1800E04323F0700343F4404343F0800320F87C
:102B280022300A7830F8223013F0400F0CD030F8F9
:102B380022309BB223F4E04323F0700343F40043B4
:102B480043F0C00320F822300A7830F822309BB2D4
:102B580023F4E04323F0700343F4004343F0C0033D
:102B680020F822300A7830F822309BB223F48043D0
:102B780023F0700348F2800C43EA0C0320F822305B
:102B88000A7830F822309BB223F4E04323F0400364
:102B980043EA0C0320F8223089E70A7830F822301B
:102BA80013F4804F0CD030F822309BB223F4E0436A
:102BB80023F0700343F4404343F0800320F82230AD
:102BC8000A7830F8223013F0400F0CD030F8223059
:102BD8009BB223F4E04323F0700343F4004343F033
:102BE800C00320F822300A7830F822309BB223F450
:102BF800E04323F0700343F4404343F0800320F89C
:102C080022300A7830F822309BB223F4E04323F0D4
:102C1800400348F2800C43EA0C0320F822300A787B
:102C280030F822309BB223F4804323F0700343EA48
:102C38000C0320F822303AE74B788BB10A7830F849
:102C480022309BB223F4E04323F0400383F01003C7
:102C580043F4004343F0800320F8223000207047FB
:102C68000A7830F822309BB223F4804323F07003B3
:102C780083F4805343F4004343F0800320F8223068
:102C8800ECE70B7B002B4BD14B7833B30A7830F849
:102C9800223013F0400F0CD030F822309BB223F4CE
:102CA800E04323F0700343F4004343F0C00320F8EB
:102CB8002230CB78012B33D00A7830F822309BB2FF
:102CC80023F4E04323F0400383F0200343F400435C
:102CD80043F0800320F8223022E00A7830F82230CE
:102CE80013F4804F0CD030F822309BB223F4E04329
:102CF80023F0700343F4404343F0800320F822306C
:102D08000A7830F822309BB223F4804323F0700312
:102D180083F4405343F4004343F0800320F8223007
:102D28000020704711B98023A0F84C30002070476C
:102D380000207047B0F8440080B2704701335B0848
:102D480000EB420000F5806008E00A7891F801C0C5
:102D580042EA0C2220F8042B0231013B002BF4D16B
:102D6800704770B505460C464A78012A35D00B7B6A
:102D7800002B40F0A9828B690A69934240F2808255
:102D88009B1A8B61B5F8503015FA83F3217803EB61
:102D98000113B3F80C14C1F30901A3F80C14002AA9
:102DA80040F07282B3F80C246FEA42426FEA524252
:102DB80092B2A3F80C24227835F822309BB223F47F
:102DC800804323F0700383F4405343F4004343F0FB
:102DD800800325F82230002070BD8B691E460969E2
:102DE8008B4200D90E46237B43B3E378022B47D0AE
:102DF800236A9B1B2362237835F8231011F0400FB8
:102E080000F0F681002A40F0E381B5F8502015FA69
:102E180082F202EB0313B3F80C24C2F30902A3F8FD
:102E28000C24002E40F0B481B3F80C246FEA42421F
:102E38006FEA524292B2A3F80C24D2E1B3B21E4612
:102E4800E28861692846FFF779FFB5F8503015FA2E
:102E580083F3227803EB0213A3F80464227835F88D
:102E680022309BB223F4E04323F0400383F0300385
:102E780043F4004343F0800325F822300020ABE7F9
:102E8800236A994280F06681227835F822309BB215
:102E980023F4E04323F0700343F4014343F0800339
:102EA80025F82230236A9B1B2362237835F82320D8
:102EB80012F0400F00F0A7806278B2BBB5F850203E
:102EC80015FA82F202EB0313B3F80C24C2F30902D9
:102ED800A3F80C244EB9B3F80C246FEA42426FEA07
:102EE800524292B2A3F80C2421E03E2E0DD872086B
:102EF80016F0010F00D00132B3F80C1489B2920217
:102F080092B20A43A3F80C2411E0710916F01F0FBE
:102F180000D10139B3F80C2492B2890289B20A436C
:102F280042F40042A3F80C2401E0012A29D0B3B2EC
:102F3800628961692846FFF701FF63693344636169
:102F4800236A2269934226D99B1B23626378002B4C
:102F580045D1B5F8503015FA83F3227803EB021304
:102F6800B3F80424C2F30902A3F80424BEB9B3F8E1
:102F780004246FEA42426FEA524292B2A3F8042450
:102F88002FE0B5F8502015FA82F202EB0313B2B223
:102F9800A3F80C24CBE7002222621E46D6E73E2E79
:102FA8000DD8720816F0010F00D00132B3F80414DE
:102FB80089B2920292B20A43A3F8042411E071097B
:102FC80016F01F0F00D10139B3F8042492B2890218
:102FD80089B20A4342F40042A3F8042401E0012B19
:102FE80006D0B3B2228961692846FFF7A7FE35E704
:102FF800B5F8503015FA83F3227803EB0213B2B216
:10300800A3F80424EDE76278B2BBB5F8502015FAAE
:1030180082F202EB0313B3F80424C2F30902A3F803
:1030280004244EB9B3F804246FEA42426FEA5242CC
:1030380092B2A3F8042421E03E2E0DD8720816F0AF
:10304800010F00D00132B3F8041489B2920292B28F
:103058000A43A3F8042411E0710916F01F0F00D1E8
:103068000139B3F8042492B2890289B20A4342F4BE
:103078000042A3F8042401E0012A29D0B3B222892E
:1030880061692846FFF75AFE636933446361236A1E
:103098002269934226D99B1B23626378002B45D172
:1030A800B5F8503015FA83F3227803EB0213B3F81E
:1030B8000C24C2F30902A3F80C24BEB9B3F80C24FB
:1030C8006FEA42426FEA524292B2A3F80C242FE010
:1030D800B5F8502015FA82F202EB0313B2B2A3F846
:1030E8000424CBE7002222621E46D6E73E2E0DD8E6
:1030F800720816F0010F00D00132B3F80C1489B22F
:10310800920292B20A43A3F80C2411E0710916F056
:103118001F0F00D10139B3F80C2492B2890289B289
:103128000A4342F40042A3F80C2401E0012B06D024
:10313800B3B2628961692846FFF700FE8EE6B5F8EA
:10314800503015FA83F3227803EB0213B2B2A3F8D6
:103158000C24EDE7217835F8212092B222F4E242DE
:1031680022F0700242F4004242F0800225F8212049
:10317800B5F8502015FA82F2217802EB01129BB2C1
:10318800A2F80434228961692846FFF7D7FD65E66D
:103198003E2E0DD8720816F0010F00D00132B3F898
:1031A8000C1489B2920292B20A43A3F80C2418E0D4
:1031B800710916F01F0F00D10139B3F80C2492B22F
:1031C800890289B20A4342F40042A3F80C2408E0B9
:1031D800B5F8502015FA82F202EB0313B2B2A3F845
:1031E8000C24B3B2628961692846FFF7A7FD35E66A
:1031F800B2BBB5F8502015FA82F202EB0313B3F80C
:103208000424C2F30902A3F804244EB9B3F8042431
:103218006FEA42426FEA524292B2A3F8042428E0CD
:103228003E2E0DD8720816F0010F00D00132B3F807
:10323800041489B2920292B20A43A3F8042418E053
:10324800710916F01F0F00D10139B3F8042492B2A6
:10325800890289B20A4342F40042A3F8042408E030
:10326800B5F8502015FA82F202EB0313B2B2A3F8B4
:103278000424B3B2228961692846FFF75FFDEDE5B2
:1032880000228A611A467DE53E2A0DD8510812F0BF
:10329800010F00D00131B3F80C2492B2890289B22F
:1032A8000A43A3F80C2486E5510912F01F0F00D138
:1032B8000139B3F80C2492B2890289B20A4342F464
:1032C8000042A3F80C2476E5CB78022B41D0012BE1
:1032D80040F0358189692369994240F2DE80C91A34
:1032E800A161C2B9B5F8502015FA82F2217802EB33
:1032F8000112B2F80414C1F30901A2F80414002B56
:1033080040F0CF80B2F804146FEA41416FEA5141AE
:1033180089B2A2F804146278002A40F00281B5F854
:10332800502015FA82F2217802EB0112B2F80C143F
:10333800C1F30901A2F80C14002B40F0D280B2F8B6
:103348000C346FEA43436FEA53439BB2A2F80C3440
:1033580031E5BAB9B0F8503010FA83F30A7803EBC4
:103368000213B3F80424C2F30902A3F804240A6977
:1033780022BBB3F804246FEA42426FEA524292B287
:10338800A3F804246378002B58D1B5F8503015FA07
:1033980083F3227803EB0213B3F80C24C2F3090277
:1033A800A3F80C2422694ABBB3F80C246FEA424202
:1033B8006FEA524292B2A3F80C2441E03E2A0DD89B
:1033C800510812F0010F00D00131B3F8042490B273
:1033D8008A0292B20243A3F80424D3E7510912F0F7
:1033E8001F0F00D10139B3F8042492B2890289B2BF
:1033F8000A4342F40042A3F80424C3E73E2A0DD846
:10340800510812F0010F00D00131B3F80C2490B22A
:103418008A0292B20243A3F80C2411E0510912F077
:103428001F0F00D10139B3F80C2492B2890289B276
:103438000A4342F40042A3F80C2401E0012B1CD0FB
:10344800E369002B3FF4B7AC227835F8223099B203
:1034580013F4804F1CD011F0400F3FF4ACAC35F89A
:1034680022309BB223F4E04323F0700343F400437B
:1034780043F0C00325F822309DE4B5F8503015FA22
:1034880083F3227803EB0213228AA3F80C24D7E7EC
:1034980011F0400F7FF48FACE1E70023A3610B46E6
:1034A8001FE73E2B0DD8590813F0010F00D001314A
:1034B800B2F8040480B2890289B20143A2F8041464
:1034C80029E7580913F01F0F00D10138B2F8041486
:1034D80089B2800280B2014341F40041A2F8041489
:1034E80019E73E2B0DD8590813F0010F00D0013110
:1034F800B2F80C3498B28B029BB20343A2F80C3496
:1035080059E4590913F01F0F00D10139B2F80C34EE
:103518009BB2890289B20B4343F40043A2F80C34EE
:1035280049E4012A7FF447ACB5F8502015FA82F235
:10353800217802EB01129BB2A2F80C343BE4012083
:103548004AE49C465B0800EB420000F5806007E017
:1035580030F8042B0A70C2F307224A700231013B8B
:10356800002BF5D11CF0010F01D003880B707047B8
:1035780010B504460E4B18680E4B1A784FF47A7340
:10358800B3FBF2F3B0FBF3F000F0F2FE68B90F2CD6
:1035980001D901200AE0024621464FF0FF3000F031
:1035A800C9FE054B1C60002000E0012010BD00BFD3
:1035B800180000206C0000207000002008B5074AA1
:1035C800136843F010031360032000F0A1FE0F20DE
:1035D800FFF7CEFFFDF75CFE002008BD002002408B
:1035E800034A1168034B1B780B441360704700BFF4
:1035F800D80D00206C000020014B1868704700BFF0
:10360800D80D002038B50446FFF7F6FF0546B4F19B
:10361800FF3F02D0044B1B781C44FFF7EDFF401B13
:10362800A042FAD338BD00BF6C000020002800F08B
:10363800028370B582B00446036813F0010F3BD0D3
:10364800B44B5B6803F00C03042B1ED0B14B5B68D2
:1036580003F00C03082B13D06368B3F5803F68D0E0
:10366800002B40F0928003F1804303F504331A687D
:1036780022F480321A601A6822F480221A605DE00F
:10368800A44B5B6813F4803FE6D04FF4003393FA01
:10369800A3F3A04B19684FF4003393FAA3F3B3FADA
:1036A80083F303F01F03012202FA03F30B4203D052
:1036B8006368002B00F0C182236813F0020F00F04A
:1036C800C480944B5B6813F00C0F00F09C80914B06
:1036D8005B6803F00C03082B00F08F802369002B34
:1036E80000F0F080012292FAA2F3B3FA83F303F117
:1036F800845303F584139B001A60FFF77DFF05468A
:10370800022393FAA3F3834B1968022393FAA3F3D2
:10371800B3FA83F303F01F03012202FA03F30B4207
:1037280040F0C280FFF768FF401B0228E8D9032059
:103738008CE2784A136843F480331360754AD36A7D
:1037480023F00F03A1680B43D3626368002B36D0C4
:10375800FFF752FF05464FF4003393FAA3F36D4B7E
:1037680019684FF4003393FAA3F3B3FA83F303F021
:103778001F03012202FA03F30B429DD1FFF73CFF1E
:10378800401B6428E7D9032060E2B3F5A02F09D0D5
:10379800604B1A6822F480321A601A6822F4802278
:1037A8001A60CBE703F18043A3F53C331A6842F46F
:1037B80080221A601A6842F480321A60BEE7FFF766
:1037C8001BFF05464FF4003393FAA3F3514B1968D6
:1037D8004FF4003393FAA3F3B3FA83F303F01F0310
:1037E800012202FA03F30B423FF466AFFFF704FF2E
:1037F800401B6428E6D9032028E2464B5B6813F493
:10380800803F7FF46BAF022393FAA3F3414B19680F
:10381800022393FAA3F3B3FA83F303F01F030122FD
:1038280002FA03F30B4203D02369934240F0078264
:103838003848036823F0F8036169F82292FAA2F283
:10384800B2FA82F291400B430360236813F0080F29
:1038580000F08C80A369002B60D0012191FAA1F2BD
:10386800B2FA82F22C4B13449B001960FFF7C4FE96
:103878000546022393FAA3F293FAA3F293FAA3F26A
:10388800244A516A93FAA3F3B3FA83F303F01F03AC
:10389800012202FA03F30B4268D1FFF7ADFE401B89
:1038A8000228E6D90320D1E11A48036823F0F80377
:1038B8006169F82292FAA2F2B2FA82F291400B43BD
:1038C8000360C2E7012393FAA3F3B3FA83F303F186
:1038D800845303F584139B0000221A60FFF78CFEC3
:1038E8000546022393FAA3F30A4B1968022393FAB5
:1038F800A3F3B3FA83F303F01F03012202FA03F3DD
:103908000B42A2D0FFF778FE401B0228E9D903201A
:103918009CE100BF0010024020819010012292FA21
:10392800A2F2B2FA82F29D4B13449B0000221A6065
:10393800FFF762FE0546022393FAA3F293FAA3F275
:1039480093FAA3F2964A516A93FAA3F3B3FA83F36C
:1039580003F01F03012202FA03F30B4206D0FFF71C
:103968004BFE401B0228E6D903206FE1236813F0C1
:10397800040F00F0AC808A4BDB6913F0805F21D123
:10398800874BDA6942F08052DA61DB6903F08053D1
:103998000193019B01231E46824B1B6813F4807F11
:1039A80013D0E368012B24D07BBB03F1804303F5DC
:1039B80004331A6A22F001021A621A6A22F0040217
:1039C8001A621BE000231E46E6E7764A136843F4B2
:1039D80080731360FFF710FE0546724B1B6813F4E3
:1039E800807FDED1FFF708FE401B6428F5D903204D
:1039F8002CE16B4A136A43F001031362E368002B5E
:103A08003CD0FFF7F9FD05462EE0052B09D0644BA5
:103A18001A6A22F001021A621A6A22F004021A6271
:103A2800ECE75F4B1A6A42F004021A621A6A42F023
:103A380001021A62E2E7022393FAA3F3584B596A88
:103A4800022393FAA3F3B3FA83F303F01F030122CB
:103A580002FA03F3194238D1FFF7CEFD401B41F2B9
:103A68008833984200F2ED80022393FAA3F293FA86
:103A7800A3F3002BDFD04A4B196AE1E7FFF7BCFD3F
:103A8800054618E0022393FAA3F3454B596A02232B
:103A980093FAA3F3B3FA83F303F01F03012202FAA4
:103AA80003F3194211D0FFF7A7FD401B41F28833F9
:103AB800984200F2C880022393FAA3F293FAA3F380
:103AC800002BDFD0364B196AE1E7002E36D1E369C7
:103AD800002B00F0BA80324A526802F00C02082A21
:103AE80000F09980022B2FD04FF0807393FAA3F344
:103AF800B3FA83F303F1845303F584139B00002284
:103B08001A60FFF779FD04464FF0007393FAA3F3A8
:103B1800234B19684FF0007393FAA3F3B3FA83F3B6
:103B280003F01F03012202FA03F3194271D0FFF7D1
:103B380063FD001B0228E7D9032087E0184AD369F0
:103B480023F08053D361C2E74FF0807393FAA3F355
:103B5800B3FA83F303F1845303F584139B00002223
:103B68001A60FFF749FD05464FF0007393FAA3F377
:103B78000B4B19684FF0007393FAA3F3B3FA83F36E
:103B880003F01F03012202FA03F319420CD0FFF7D6
:103B980033FD401B0228E7D9032057E0208190100D
:103BA80000100240007000402C494B6823F4741345
:103BB800626A206A024313434B604FF0807393FAA2
:103BC800A3F3B3FA83F303F1845303F584139B003F
:103BD80001221A60FFF710FD04464FF0007393FAB4
:103BE800A3F31E4B19684FF0007393FAA3F3B3FACB
:103BF80083F303F01F03012202FA03F3194206D1EB
:103C0800FFF7FAFC001B0228E7D903201EE000207A
:103C18001CE000201AE0012B1AD0104B5B6803F45B
:103C28008031226A914215D103F47013626A93427B
:103C380012D100200AE001207047012006E001208F
:103C480004E0032002E0032000E0184602B070BD43
:103C58000120FBE70120F9E70120F7E70010024007
:103C6800114B5B6803F00C02042A18D0082A18D1FB
:103C7800C3F383420D49885C0B4AD26A02F00F02F3
:103C88000B498A5C13F4803F05D00A4BB3FBF2F36F
:103C980003FB00F07047084B03FB00F07047054832
:103CA80070470648704700BF00100240B05E000829
:103CB800A05E00080024F40000093D0000127A000C
:103CC800002800F0BE8070B50D460446614B1B68A5
:103CD80003F007038B420BD25E4A136823F00703F5
:103CE8000B431360136803F007038B4240F0AB806B
:103CF800236813F0020F06D0574A536823F0F003E5
:103D0800A1680B435360236813F0010F5AD063680E
:103D1800012B2DD0022B40D0022292FAA2F24E4A59
:103D28001068022292FAA2F2B2FA82F202F01F029C
:103D3800012101FA02F2104200F0878046494A68E0
:103D480022F0030213434B60FFF756FC0646424B32
:103D58005B6803F00C036268B3EB820F32D0FFF7A5
:103D68004BFC801B41F288339842F0D9032067E06E
:103D78004FF4003292FAA2F2374A10684FF4003238
:103D880092FAA2F2B2FA82F202F01F02012101FABB
:103D980002F20242D2D1012052E04FF0007292FAB0
:103DA800A2F22D4A10684FF0007292FAA2F2B2FA0B
:103DB80082F202F01F02012101FA02F21042BDD183
:103DC80001203DE0234B1B6803F00703AB420AD9EF
:103DD800204A136823F007032B431360136803F08A
:103DE8000703AB4233D1236813F0040F06D01A4AF5
:103DF800536823F4E063E1680B435360236813F0CE
:103E0800080F07D0144A536823F46053216943EA22
:103E1800C1035360FFF724FF0F4B5B6803F0F00307
:103E2800F02292FAA2F2B2FA82F2D3400B4AD35CA1
:103E3800D8400B4B18600B4B1868FFF799FB002014
:103E480070BD012070470120FAE70120F8E7012042
:103E5800F6E700BF0020024000100240485E00085C
:103E6800180000207000002070B582B00446036876
:103E780013F4803F49D0924BDB6913F0805F40F028
:103E8800D6808F4BDA6942F08052DA61DB6903F041
:103E980080530193019B01231E468A4B1B6813F430
:103EA800807F00F0C780864B1B6A13F4407322D0D2
:103EB800626802F440729A421DD08148016A21F476
:103EC800407C4FF4803393FAA3F2B2FA82F2DFF81F
:103ED800F8E1724492000125156093FAA3F3B3FA4E
:103EE80083F373449B0000221A60C0F820C011F0CD
:103EF800010F40F0B480724A136A23F4407361687A
:103F08000B431362002E40F0D180236813F0010F99
:103F180006D06B4A136B23F00303A1680B431363AA
:103F2800236813F0020F06D0654A136B23F440335D
:103F3800E1680B431363236813F0040F06D0604A4B
:103F4800136B23F4402321690B431363236813F095
:103F5800200F06D05A4A136B23F01003E1690B4374
:103F68001363236813F4003F06D0554A536823F4BB
:103F78008003A16B0B435360236813F0400F06D0F6
:103F88004F4A136B23F02003216A0B431363236802
:103F980013F0080F06D04A4A136B23F440136169E3
:103FA8000B431363236813F0100F06D0444A136BB6
:103FB80023F44003A1690B431363236813F4007FC0
:103FC80006D03F4A536823F40003E16A0B43536069
:103FD800236813F0800F06D0394AD36A23F4F873A4
:103FE800616A0B43D362236813F4807F06D0344A96
:103FF800D36A23F47853A16A0B43D362236813F47A
:10400800805F06D02E4A136B23F48073216B0B4319
:104018001363236813F4005F4FD0294A136B23F40A
:104028000073616B0B431363002002B070BD002363
:104038001E4632E7234A136843F480731360FFF780
:10404800DBFA05461F4B1B6813F4807F7FF42BAF08
:10405800FFF7D2FA401B6428F4D90320E5E7FFF7FD
:10406800CBFA054618E0022393FAA3F3144B596AD6
:10407800022393FAA3F3B3FA83F303F01F03012295
:1040880002FA03F30B427FF436AFFFF7B5FA401B91
:1040980041F2883398420ED8022393FAA3F293FA96
:1040A800A3F3002BDFD0064B196AE1E7D36923F0AD
:1040B8008053D36129E70320B7E70020B5E700BFA5
:1040C80000100240007000400081901070B582B06E
:1040D8008646002363E0DEF808405D000320A84020
:1040E80024EA0004C868A8402043CEF80800DEF897
:1040F800044024EA0C044868C0F3001098402043A8
:10410800CEF804005CE0DC0808345EF8240003F014
:104118000705AD004FF00F0C0CFA05FC20EA0C0C5B
:104128000869A84040EA0C004EF824005EE004202C
:1041380000E0002000FA0CF028430234514D45F805
:10414800240051488468D04324EA02054E6816F4D6
:10415800801F01D042EA04054B4CA560E46800EAE0
:1041680004054E6816F4001F01D042EA0405464CC7
:10417800E560646800EA04054E6816F4003F01D063
:1041880042EA0405404C6560246820404D6815F4F7
:10419800803F01D042EA04003B4A106001330A68BC
:1041A80032FA03F06BD04FF0010C0CFA03FC1CEA56
:1041B8000202F3D0486800F00300013801288AD9C8
:1041C800486800F0030003280BD0DEF80C405D00BF
:1041D8000320A84024EA00048868A8402043CEF8B9
:1041E8000C00486800F0030002288CD0DEF80000BC
:1041F8005C004FF0030C0CFA04FC20EA0C0C486835
:1042080000F00300A04040EA0C00CEF80000486827
:1042180010F4403FC2D01D48846944F00104846111
:10422800806900F00100019001989C08A51C1548C0
:1042380050F8255003F0030C4FEA8C0C0F2000FABD
:104248000CF025EA0005BEF1904F3FF472AF10481C
:1042580086450ED000F5806086450CD000F580605C
:1042680086450AD000F5806086453FF460AF05209A
:1042780060E701205EE702205CE703205AE702B00E
:1042880070BD00BF00000140000401400010024062
:10429800000400480AB181617047816270470000DC
:1042A800002808DB0901C9B200F1604000F561404F
:1042B80080F80013704700F00F000901C9B2014BE4
:1042C8001954704714ED00E000B500F00700A0F1A4
:1042D800030CBCF1040F07D8C0F1070E0430062800
:1042E80006D84FF0000C03E04FF0040E4FF0000C1E
:1042F8004FF0FF3303FA0EF021EA000101FA0CF146
:1043080003FA0CF322EA030241EA020000BD0000AE
:10431800074AD36823F4E0631B041B0C000200F473
:10432800E060034343F0BF6343F40033D360704756
:1043380000ED00E010B50446054BD868C0F3022034
:10434800FFF7C2FF01462046FFF7AAFF10BD00BFD6
:1043580000ED00E0002807DB00F01F024009012300
:104368009340024A42F82030704700BF00E100E065
:104378000138B0F1807F0BD24FF0E0235861054A35
:10438800F02182F823100020986107221A617047F3
:104398000120704700ED00E0044B0022DA61044A76
:1043A800136943F00103136101807047E00D002099
:1043B800002002400C4BDB6813F0100305D00B4AB9
:1043C800D36943F00203D3611023074AD26812F07D
:1043D800040F06D00549CA6942F00102CA6143F0D8
:1043E8000403014AD360704700200240E00D00201A
:1043F8000A4B1B6913F0800F0BD0084B084A5A6010
:1044080002F188325A601B6913F0800F03D1002033
:104418007047002070470120704700BF002002400D
:1044280023016745034A136943F0800313610020A1
:10443800704700BF0020024038B50446FFF7DCF89B
:104448000546144BDB6813F0010F0AD0B4F1FF3FA7
:10445800F7D024B1FFF7D0F8401BA042F1D90320D0
:1044680012E00C4BDB6813F0200F02D0094B20221E
:10447800DA60084BDB6813F0100F06D1054BDB68D8
:1044880013F0040F01D1002038BDFFF793FF01207E
:10449800FAE700BF002002402DE9F0411D46244BF9
:1044A8001B7E012B41D004460E461746204B0122A5
:1044B8001A764CF25030FFF7BFFF034678BB012C49
:1044C80008D0022C03D04FF004081C4607E04FF038
:1044D8000208FAE74FF00108F7E70134E4B244456F
:1044E8001DD22101C1F12002A1F1200327FA01F117
:1044F80005FA02F2114325FA03F3194389B206EBD0
:104508004400FFF749FF4CF25030FFF795FF094A86
:10451800136923F00103136103460028DDD0044A20
:10452800002111761846BDE8F0810223FAE700BFA2
:10453800E00D002000200240064B0022DA61064B05
:104548001A6942F004021A611A6942F040021A61BB
:10455800704700BFE00D002000200240064B0022FB
:10456800DA61064B1A6942F002021A6158611A6947
:1045780042F040021A617047E00D0020002002401E
:10458800264B1B7E012B45D070B505460E46234BA6
:1045980001221A760368934220D04CF25030FFF77C
:1045A8004BFF88BB4FF0FF3333606C680121AA686A
:1045B8006B6803EBC223A34227D92046FFF7CEFF3F
:1045C8004CF25030FFF738FF154A136923F0020305
:1045D80013610146B0B904F50064E8E74CF25030C5
:1045E800FFF72AFF08B101210FE0FFF7A5FF4CF202
:1045F8005030FFF721FF0146094A136923F00403ED
:10460800136102E0346000E00121044B00221A76B5
:10461800084670BD02210846704700BFE00D002023
:104628000020024038B50268936803F00303012BA9
:1046380001D0002038BD0446136813F0010F33D0B1
:10464800936803F00D03012B09D0036C43F01003AA
:104658000364436C43F0010343640120EAE7936871
:1046680043F002039360036803221A60FEF7C4FF55
:10467800054623689B6813F0010F13D0FEF7BCFFB3
:10468800401B0228F5D923689B6813F0010FF0D06E
:10469800236C43F010032364636C43F001036364E9
:1046A8000120C7E70020C5E70020C3E738B5044666
:1046B8000268936803F00303012B0DD091681A4B2D
:1046C80019420FD0236C43F010032364636C43F04A
:1046D80001036364012038BD136813F0010FEDD0A6
:1046E8000020F8E7936843F001039360FEF784FF26
:1046F800054623681B6813F0010F13D1FEF77CFFF2
:10470800431B022BF5D923681B6813F0010FF0D166
:10471800236C43F010032364636C43F00103636468
:104728000120D8E70020D6E73F00008030B597B0D9
:1047380000230193002800F037810446036C13F02E
:10474800100F52D1036CABB1002023689A6812F0A5
:10475800805F03D09B6813F0005F47D0236C23F081
:10476800120343F010032364636C43F00103636492
:1047780001203BE04364C364836480F83C30FCF769
:10478800EBFC23689B6813F0805F01D00020DCE716
:104798002046FFF747FF236C13F0100FD5D10028F0
:1047A800D3D1236C23F4885323F0020343F002038C
:1047B80023642268936823F04053936022689368C7
:1047C80043F080539360794B1B68794AA2FB03231B
:1047D8009B0C03EB83035B00019302E0019B013B0D
:1047E8000193019B002BF9D1AFE70020236C13F054
:1047F800100F40F0D080002840F0CD8023689968E1
:1048080011F0040140F0C780226C22F4817242F05A
:1048180002022264B3F1A04F16D0664A934210D028
:10482800DFF8A0C1B3F1A04F11D0624A93426ED015
:10483800614A93426FD0614A934270D0002202923B
:1048480007E0DFF884C1EDE7DFF87CC1EAE7594A01
:1048580002929A6802F00302012A64D0029B23B1F3
:104868009A6802F00302012A62D0DCF8083023F4C7
:10487800403362681343CCF80830627E5303656B9B
:10488800012D01D04FF480510B43E1680B43A1681F
:104898000B4394F8201001294FD0A26A012A0BD0AB
:1048A8002168DFF814C161455AD00CF5807C614558
:1048B80056D0E16A11430B432268916811F00C0F3E
:1048C8000CD1D16821F4804121F00201D160217E10
:1048D80094F83020520042EA813213432168D1F81B
:1048E8000CC0374A0CEA02021A43CA602369012B3A
:1048F80048D02268136B23F00F031363002363640B
:10490800236C23F0030343F0010323644AE04FF0D0
:10491800A04202929DE702F58072029299E7A2F501
:104928008072029295E71B6813F0010FA5D195E7F5
:104938001B6813F0010FA0D197E732B9626A013AF8
:1049480043EA424242F48033A7E7226C22F0220273
:1049580042F020022264626C42F0010262649CE729
:10496800B2F5307F08D0B2F5807F08D0B2F5E07F8D
:104978009FD14FF480729CE74FF4E07299E74FF4AF
:10498800307296E721680B6B23F00F03E269013A56
:1049980013430B63B2E7236C23F0120343F01003B5
:1049A8002364012017B030BD0120FBE71800002068
:1049B80083DE1B4300010050000400500005005036
:1049C80007C0F0FF000700500003005003689B6811
:1049D80013F0040F40F0AD8010B5044690F83C3059
:1049E800012B00F0A880012380F83C30FFF75EFE21
:1049F800002840F09A80236C23F4706323F00103AD
:104A080043F4807323642368B3F1A04F33D04B4A37
:104A1800934230D04A4A926812F01F0F30D1226C6C
:104A280022F480122264DA6812F0007F05D0226C2A
:104A380022F4405242F480522264226C12F4805FC5
:104A48003ED0626C22F006026264002284F83C20A8
:104A58001C221A602368B3F1A04F34D0374A93421E
:104A680031D0374A926812F01F0F31D19A6842F05C
:104A780004029A605CE0334A926812F01F0FCED0AD
:104A8800B3F1A04FCBD0304A9342C8D0226C42F445
:104A980080122264294A93420CD02B4AD268C2F36E
:104AA8004062002AC9D0226C22F4405242F480525B
:104AB8002264C2E74FF0A042D268C2F34062F0E736
:104AC80000226264C1E71F4A926812F01F0FCDD01E
:104AD800B3F1A04F09D0194A934206D0184A9268F8
:104AE80002F01F02052A06D1C0E7164A926802F0B2
:104AF8001F02052ABAD0B3F1A04F09D00F4A93423A
:104B080006D00F4A926802F01F02092A06D1ADE7C3
:104B18000C4A926802F01F02092AA7D0B3F1A04FED
:104B2800A4D0094A934203D1A0E7002384F83C307B
:104B380010BD022070470220FAE700BF00010050B4
:104B48000007005000030050000400502DE9F04118
:104B580004460E464569082D10D00368B3F1A04FEE
:104B680036D04F4A934230D04E4A916811F01F0F09
:104B780039D1DB6813F0010F2CD10C252368B3F170
:104B8800A04F3FD0464A93423CD0464A926812F022
:104B98001F0F3CD1DB681F46FEF72EFD80462368B9
:104BA8001A682A424AD1B6F1FF3FF8D0002E3ED10A
:104BB80023681B682B42F2D1236C43F0040323645F
:104BC800002384F83C30032065E002F50072CCE74E
:104BD800354ACAE7236C43F020032364002384F892
:104BE8003C30012057E0936813F4404F01D10C2565
:104BF800C4E7236C43F020032364002384F83C308B
:104C0800012048E0284A926812F01F0FC2D0B3F181
:104C1800A04FBFD0254A9342BCD0214A934203D02B
:104C2800224BDB681F46B7E74FF0A043F9E7FEF7D2
:104C3800E3FC4346C01AB042B1D9B9E7226C42F44A
:104C480000722264DA6812F4406F1FD117F4005F13
:104C58001CD11A6812F0080F18D09A6812F0040FC5
:104C68000CD1226C22F480722264226C12F4805FD0
:104C78000CD1226C42F00102226407E0226C42F05F
:104C880020022264626C42F00102626417F4804FD1
:104C980003D11D600020BDE8F0810020FBE700BFC4
:104CA80000010050000700500003005000040050AD
:104CB8000368186C7047000010B596B00022019286
:104CC80090F83C20012A00F011820346012280F866
:104CD8003C200068826812F0040F40F0FD814A68A9
:104CE800042A4BD8D0F830C002EB420252004FF0F1
:104CF8001F0E0EFA02FE2CEA0E0C0C6804FA02F2E1
:104D08004CEA020202631868826812F00C0F40F045
:104D1800A2800A68092A6ED9D0F818C00A3A02EBAC
:104D280042024FF0070E0EFA02FE2CEA0E0C8C68B7
:104D380004FA02F24CEA020282614869D3F800C020
:104D4800DCF80C20C2F3C102520090400A69032A21
:104D580000F0AC8060D8012A70D0022A40F0B480FC
:104D6800DCF864E0B74A0EEA02020C6840EA8460A4
:104D7800024342F00042CCF864206CE0092A12D8C1
:104D8800D0F834C0053A02EB420252004FF01F0E31
:104D98000EFA02FE2CEA0E0C0C6804FA02F24CEA37
:104DA80002024263AFE70E2A12D8D0F838C00A3A96
:104DB80002EB420252004FF01F0E0EFA02FE2CEADE
:104DC8000E0C0C6804FA02F24CEA020282639AE7BB
:104DD800D0F83CC00F3A02EB420252004FF01F0ECF
:104DE8000EFA02FE2CEA0E0C0C6804FA02F24CEAE7
:104DF8000202C26387E7D0F814C002EB42024FF008
:104E0800070E0EFA02FE2CEA0E0C8C6804FA02F267
:104E18004CEA0202426190E7042A55D1DCF86C2082
:104E2800DFF820E202EA0E0E0A6840EA82624EEAE1
:104E3800020E4EF00042CCF86C200CE0DCF860E08A
:104E4800804A0EEA02020C6840EA8460024342F09B
:104E58000042CCF860201868826802F00302012A38
:104E680068D0CA68012A6BD0D0F8B0204FF0010C86
:104E78000C680CFA04FC22EA0C02C0F8B0201A688C
:104E8800B2F1A04F00F095806F48824200F08E800A
:104E9800DFF8C0C10968102900F08E80112900F0E0
:104EA800A080122900F0A38000201AE1DCF868E055
:104EB800644A0EEA02020C6840EA8460024342F047
:104EC8000042CCF86820C6E7DCF8602002F0F8421F
:104ED8000868B2EB806F1CD01868426E02F0F84286
:104EE8000C68B2EB846F1BD01868826E02F0F8422F
:104EF8000C68B2EB846F18D01868C26E02F0F842E2
:104F08000C68B2EB846FA6D1C26E22F00042C26672
:104F1800A1E7DCF8602022F00042CCF86020DBE753
:104F2800426E22F000424266DEE7826E22F00042C4
:104F38008266E1E7026812F0010F92D00020D0E00B
:104F4800D0F8B0204FF0010C0C680CFA04FC42EACF
:104F58000C02C0F8B0200A68092A13D9D3F800E077
:104F6800DEF81800093A02EB42024FF0070C0CFA7F
:104F780002FC20EA0C008C6804FA02F20243CEF824
:104F880018207CE7D3F800E0DEF81400013202EBC9
:104F980042024FF0070C0CFA02FC20EA0C008C6865
:104FA80004FA02F20243CEF8142068E7DFF8A8C03A
:104FB80070E7DFF8A4C06DE7DCF8080010F4000F14
:104FC8007FF46CAFB2F1A04F18D01F4882422DD0A9
:104FD8001E4882422ED01E4882422FD000200290C6
:104FE8000EE0DCF8080010F0807FEBD059E7DCF821
:104FF800080010F4800FE5D0002072E012480290FB
:10500800906800F00300012828D0029830B1D0F849
:1050180008E00EF0030EBEF1010F29D010292CD0A4
:10502800112946D012294FD000205AE04FF0A04055
:105038000290E5E700F580700290E1E7A0F5807046
:105048000290DDE700F0FF830001005000040050EB
:10505800000500500007005000030050106810F0D1
:10506800010FD2D01A6C42F020021A64012038E0F5
:10507800006810F0010FF5D1D0E7B2F1A04FCFD101
:10508800DCF8082042F40002CCF80820184A12681C
:105098001849A1FB0212920C02EB82025200019203
:1050A80002E0019A013A0192019A002AF9D11046C8
:1050B80017E0B2F1A04FB5D1DCF8082042F08072B9
:1050C800CCF8082000200CE0DCF8082042F480022C
:1050D800CCF80820002004E01A6C42F020021A6480
:1050E8000120002283F83C2016B010BD0220FBE707
:1050F8001800002083DE1B4310B594B003460268F5
:10510800B2F1A04F0BD05648824258D0554882423F
:1051180059D0554882425AD00020009001E05048AA
:1051280000900098002800F0978093F83CC0BCF1EC
:10513800010F00F093804FF0010C83F83CC0D2F8C7
:1051480008C01CF0040F7DD1D0F808C01CF0040F73
:1051580078D1B2F1A04F40D0DFF804C162453AD00F
:10516800424A0C68002C47D0D2F808C02CF4604C96
:1051780093F830E04C6844EA4E3E4CEA0E0CC2F814
:1051880008C0D3F800E0DEF808C00CF0030CBCF14E
:10519800010F24D0D0F808C00CF0030CBCF1010FAB
:1051A80024D0906820F4716020F00F00D1F800C07E
:1051B80089684CEA010108439060002047E04FF0FD
:1051C800A0400090ADE700F580700090A9E7A0F539
:1051D80080700090A5E7264AC3E7254AC1E7DEF8B4
:1051E80000C01CF0010FD5D0002030E0006810F09E
:1051F800010FD6D000202AE0916821F46041916027
:10520800D3F800C0DCF8081001F0030101290CD024
:10521800816801F0030101290ED0916821F47161C0
:1052280021F00F019160002011E0DCF8001011F06E
:10523800010FEDD000200AE0016811F0010FECD059
:10524800002004E01A6C42F020021A6401200022B7
:1052580083F83C2014B010BD0120FBE70220F9E7D9
:1052680000010050000400500005005000070050E5
:105278000003005098B108B50346D0F8B40210B145
:105288000020C3F8B40209B1C3F8B012012183F8B1
:105298009C121A701846FCF763F9002008BD02201A
:1052A800704719B1C0F8B412002070470220704747
:1052B80008B5FCF7B7F9002008BD08B5D0F8B43236
:1052C8002BB11B68984700B908BD0220FCE70220F3
:1052D800FAE708B5D0F8B4325B689847002008BDF3
:1052E80038B5044600F52A75284600F035F901233B
:1052F800C4F89432B4F8AE32C4F8983294F8A812CC
:1053080001F01F03012B08D0022B0BD07BB92946D3
:10531800204600F0E3FA002038BD2946204600F078
:1053280016FBF8E72946204600F041FBF3E701F0B9
:1053380080012046FCF791F9EDE738B504460D46A3
:1053480091BB1346D0F89422032A03D0052A24D00F
:10535800084633E0D0F86011D0F8642191420DD9A5
:10536800891AC0F860118A4206D98AB219462046BD
:1053780000F047FC284621E092B2F7E7D0F8B432B3
:105388001B691BB190F89C22032A04D0204600F028
:1053980040FC284612E09847F8E70021C0F894122C
:1053A800FCF75BF9284609E0D0F8B4329B6933B1C1
:1053B80090F89C22032A04D19847002038BD022087
:1053C800FCE70220FAE738B504460D46002953D118
:1053D8001346D0F89422022A0CD0042A00D01AB915
:1053E80080212046FCF739F994F8A032012B3ED0F1
:1053F800284638BD026A416A8A421BD8C269B2FB94
:10540800F1F301FB13232BB9914203D8D0F898325A
:105418009A421CD3D4F8B432DB681BB194F89C22AE
:10542800032A21D080212046FCF717F9204600F0F6
:10543800FBFBD9E7521A026292B2194600F0D9FB77
:1054480000231A4619462046FCF727F9CCE7002224
:10545800114600F0CEFB0021C4F898120B460A460C
:105468002046FCF71AF9BFE720469847DAE70023F9
:1054780084F8A0322846BCE7D0F8B4325B6933B16F
:1054880090F89C22032A04D198470020B1E7022013
:10549800AFE70220ADE770B504464023002211466D
:1054A800FCF7C8F80125C4F858514026C4F86461CF
:1054B8003346002280212046FCF7BCF8A5616662CD
:1054C80084F89C520023C4F894326360C4F8A43270
:1054D800D4F8B8322BB1D4F8B4325B680021204636
:1054E8009847002070BD01740020704790F89C32E6
:1054F80080F89D32042380F89C320020704790F891
:105508009C32042B01D00020704790F89D3280F81F
:105518009C32F8E708B590F89C32032B01D00020A4
:1055280008BDD0F8B432DB69002BF8D09847F6E70D
:105538000346002002E00130C0B201331A78002A85
:10554800F9D1704708B54B88012B00D008BDC0F8C9
:10555800A43200F05EFBF9E70B7803704B784370D8
:105568008B78CA7803EB022343800B794A7903EBE3
:10557800022383808B79CA7903EB0223C3807047A7
:1055880010B504468021FCF768F800212046FCF796
:1055980064F810BD30B583B005460C460023ADF85D
:1055A80006304A88130A032B3FD012D9062B00F085
:1055B8009880072B40F0A480037C002B40F09D804E
:1055C800D0F8B4321B6B0DF10600984707234370DF
:1055D80016E0012B0DD0022B40F09280037CDBB942
:1055E800D0F8B4329B6A0DF1060098470223437045
:1055F80006E0D0F8B0321B680DF10601007C984730
:10560800BDF8062012B1E388002B7ED1E388002B79
:1056180000F0858003B030BDD0F8B432DB6A0DF1FC
:105628000600984702234370EAE7D2B2032A38D02B
:105638000ED8012A1DD0022A27D0002A4CD1D0F832
:10564800B0325B6893B10DF10601007C9847D7E74B
:10565800042A32D0052A3FD1D0F8B0329B69002BFA
:1056680037D00DF10601007C9847C9E7FFF788FF9E
:10567800D0E7D0F8B0329B6823B10DF10601007C69
:105688009847BDE7FFF77CFFC4E7D0F8B032DB6886
:1056980023B10DF10601007C9847B1E7FFF770FFD1
:1056A800B8E7D0F8B0321B6923B10DF10601007CD0
:1056B8009847A5E7FFF764FFACE7D0F8B0325B691D
:1056C80023B10DF10601007C984799E7FFF758FFD1
:1056D800A0E7FFF755FF9DE721462846FFF750FF53
:1056E80098E7037C33B9D0F8B4325B6B0DF1060050
:1056F800984785E7FFF744FF8CE7FFF741FF89E705
:1057080021462846FFF73CFF84E79A4228BF1A46FD
:10571800ADF806200146284600F05EFA76E72846EE
:1057280000F077FA76E738B504468B8803BBCB8858
:10573800F3B94B887F2B1BD803F07F031A4690F8E8
:105748009C32032B0DD0154680F89E221146FBF79C
:1057580094FF204600F05DFA35B1022384F89C32AC
:1057680009E0FFF70DFF06E0012384F89C3202E010
:105778002046FFF705FF38BD38B5044608460D46F4
:105788004B88D9B22D4A117001290FD894F89C2260
:10579800022A10D0032A26D001462046FFF7F0FE41
:1057A800264B19782046FFF794FD03E00146204672
:1057B800FFF7E6FE38BD91B1DBB26360032384F8DE
:1057C8009C322046FFF779FD022803D0204600F0DE
:1057D80020FAEFE729462046FFF7D2FEEAE72046FF
:1057E80000F017FAE6E799B1DBB261688B4220D086
:1057F800C9B22046FFF76DFD104B1978616020464D
:10580800FFF75BFD02280FD0204600F002FAD1E72F
:10581800022284F89C22DBB263602046FFF759FD20
:10582800204600F0F6F9C5E729462046FFF7A8FE0E
:10583800C0E7204600F0EDF9BCE700BF000E0020ED
:1058480008B5CB88012B0AD190F89C32022B09D9D4
:10585800032B11D10122011D00F0BEF901E0FFF771
:105868008FFE08BD5BB23BB10146002341F8083FFB
:10587800012200F0B1F9F4E7FFF782FEF1E708B57D
:1058880090F89C32013B022B12D8CB88022B0CD10A
:105898000123C360D0F8A4320BB10323C3600222F2
:1058A80000F10C0100F098F908BDFFF769FEFBE76D
:1058B800FFF766FEF8E708B590F89C32013B022B2B
:1058C80009D84B88012B00D008BD0023C0F8A432AA
:1058D80000F09FF9F8E7FFF753FEF5E708B50B78F6
:1058E80003F06003202B05D0402B03D043B1FFF712
:1058F80047FE03E0D0F8B4329B689847002008BD03
:105908004B78052B11D007D8012B1AD0032B15D0B3
:10591800D3B9FFF7B4FFF1E7082B0CD0092B07D058
:10592800062B11D1FFF736FEE8E7FFF7FCFEE5E7A7
:10593800FFF722FFE2E7FFF783FFDFE7FFF702FE4B
:10594800DCE7FFF7B8FFD9E7FFF71AFED6E738B567
:1059580005460C460B7803F06003202B06D0402B3D
:1059680004D01BB1FFF70CFE002038BD95F89C321F
:10597800013B022B16D82379022B0ED8D5F8B43266
:105988009B68214628469847E388002BECD10028DD
:10599800EAD1284600F03DF9E6E721462846FFF718
:1059A800EFFDE1E721462846FFF7EAFDDCE770B5A1
:1059B80005468B880C7804F06004202C07D0DAB2F6
:1059C800402C04D05CB1FFF7DBFD002405E0D5F8DE
:1059D800B4329B68284698470024204670BD202C86
:1059E8000BD048780646012837D003280BD000286A
:1059F8005CD02846FFF7C4FDEFE7D0F8B4329B68C7
:105A080098470446E9E795F89C32022B05D0032B0A
:105A180013D02846FFF7B4FDDFE70AB1802A03D187
:105A28002846FFF7ADFDD8E711462846FBF715FED7
:105A380080212846FBF711FECFE74B8823B91AB11E
:105A4800802A01D0CB881BB1284600F0E2F8C4E7D1
:105A580011462846FBF701FEF6E795F89C02022856
:105A680005D0032813D02846FFF78AFDB5E70AB109
:105A7800802A03D12846FFF783FDAEE71146284662
:105A8800FBF7EBFD80212846FBF7E7FDA5E74988F2
:105A98000029A2D113F07F0F03D1284600F0B9F8EE
:105AA8009BE711462846FBF7E0FDF6E795F89C02D0
:105AB800022806D0032829D02846FFF761FD34467E
:105AC8008BE70AB1802A13D113F0800F15D103F0A8
